{
  "contractName": "KURASAH",
  "abi": [
    {
      "inputs": [
        {
          "internalType": "address payable",
          "name": "_owner",
          "type": "address"
        }
      ],
      "stateMutability": "nonpayable",
      "type": "constructor"
    },
    {
      "anonymous": false,
      "inputs": [
        {
          "indexed": false,
          "internalType": "address",
          "name": "winner",
          "type": "address"
        },
        {
          "indexed": false,
          "internalType": "string",
          "name": "bidName",
          "type": "string"
        },
        {
          "indexed": false,
          "internalType": "uint256",
          "name": "amout",
          "type": "uint256"
        }
      ],
      "name": "BidWinner",
      "type": "event"
    },
    {
      "anonymous": false,
      "inputs": [
        {
          "indexed": false,
          "internalType": "string",
          "name": "name",
          "type": "string"
        }
      ],
      "name": "TenderCreated",
      "type": "event"
    },
    {
      "stateMutability": "payable",
      "type": "fallback",
      "payable": true
    },
    {
      "inputs": [
        {
          "internalType": "address",
          "name": "",
          "type": "address"
        }
      ],
      "name": "bidderId",
      "outputs": [
        {
          "internalType": "uint256",
          "name": "",
          "type": "uint256"
        }
      ],
      "stateMutability": "view",
      "type": "function",
      "constant": true
    },
    {
      "inputs": [
        {
          "internalType": "string",
          "name": "",
          "type": "string"
        },
        {
          "internalType": "uint256",
          "name": "",
          "type": "uint256"
        }
      ],
      "name": "bidding",
      "outputs": [
        {
          "internalType": "address payable",
          "name": "bidder",
          "type": "address"
        },
        {
          "internalType": "uint256",
          "name": "biddingAmount",
          "type": "uint256"
        }
      ],
      "stateMutability": "view",
      "type": "function",
      "constant": true
    },
    {
      "inputs": [
        {
          "internalType": "string",
          "name": "",
          "type": "string"
        }
      ],
      "name": "tenderInfo",
      "outputs": [
        {
          "internalType": "bool",
          "name": "open",
          "type": "bool"
        },
        {
          "internalType": "string",
          "name": "name",
          "type": "string"
        },
        {
          "internalType": "uint256",
          "name": "bids",
          "type": "uint256"
        },
        {
          "internalType": "uint256",
          "name": "LowestBid",
          "type": "uint256"
        },
        {
          "internalType": "address payable",
          "name": "winner",
          "type": "address"
        },
        {
          "internalType": "uint256",
          "name": "winId",
          "type": "uint256"
        },
        {
          "internalType": "uint256",
          "name": "start",
          "type": "uint256"
        },
        {
          "internalType": "uint256",
          "name": "end",
          "type": "uint256"
        }
      ],
      "stateMutability": "view",
      "type": "function",
      "constant": true
    },
    {
      "stateMutability": "payable",
      "type": "receive",
      "payable": true
    },
    {
      "inputs": [
        {
          "internalType": "string",
          "name": "_name",
          "type": "string"
        }
      ],
      "name": "createTender",
      "outputs": [],
      "stateMutability": "nonpayable",
      "type": "function"
    },
    {
      "inputs": [],
      "name": "contractBalance",
      "outputs": [
        {
          "internalType": "uint256",
          "name": "",
          "type": "uint256"
        }
      ],
      "stateMutability": "view",
      "type": "function",
      "constant": true
    },
    {
      "inputs": [],
      "name": "balanceOf",
      "outputs": [
        {
          "internalType": "uint256",
          "name": "",
          "type": "uint256"
        }
      ],
      "stateMutability": "view",
      "type": "function",
      "constant": true
    },
    {
      "inputs": [
        {
          "internalType": "string",
          "name": "_tender",
          "type": "string"
        }
      ],
      "name": "numberOfBids",
      "outputs": [
        {
          "internalType": "uint256",
          "name": "",
          "type": "uint256"
        }
      ],
      "stateMutability": "view",
      "type": "function",
      "constant": true
    },
    {
      "inputs": [
        {
          "internalType": "string",
          "name": "_name",
          "type": "string"
        },
        {
          "internalType": "address payable",
          "name": "user",
          "type": "address"
        }
      ],
      "name": "bid",
      "outputs": [],
      "stateMutability": "payable",
      "type": "function",
      "payable": true
    },
    {
      "inputs": [
        {
          "internalType": "string",
          "name": "_name",
          "type": "string"
        }
      ],
      "name": "closeBid",
      "outputs": [],
      "stateMutability": "nonpayable",
      "type": "function"
    },
    {
      "inputs": [
        {
          "internalType": "string",
          "name": "_name",
          "type": "string"
        }
      ],
      "name": "announce",
      "outputs": [],
      "stateMutability": "nonpayable",
      "type": "function"
    },
    {
      "inputs": [],
      "name": "Bidinfo",
      "outputs": [
        {
          "internalType": "string",
          "name": "name",
          "type": "string"
        },
        {
          "internalType": "bool",
          "name": "open",
          "type": "bool"
        },
        {
          "internalType": "uint256",
          "name": "bids",
          "type": "uint256"
        },
        {
          "internalType": "uint256",
          "name": "LowestBid",
          "type": "uint256"
        },
        {
          "internalType": "address",
          "name": "winner",
          "type": "address"
        },
        {
          "internalType": "uint256",
          "name": "winId",
          "type": "uint256"
        }
      ],
      "stateMutability": "pure",
      "type": "function",
      "constant": true
    },
    {
      "inputs": [
        {
          "internalType": "string",
          "name": "_name",
          "type": "string"
        },
        {
          "internalType": "address payable",
          "name": "user",
          "type": "address"
        }
      ],
      "name": "withdraw",
      "outputs": [],
      "stateMutability": "nonpayable",
      "type": "function"
    }
  ],
  "bytecode": "0x60806040523480156200001157600080fd5b506040516200188438038062001884833981810160405281019062000037919062000095565b806000806101000a81548173ffffffffffffffffffffffffffffffffffffffff021916908373ffffffffffffffffffffffffffffffffffffffff160217905550506200010f565b6000815190506200008f81620000f5565b92915050565b600060208284031215620000a857600080fd5b6000620000b8848285016200007e565b91505092915050565b6000620000ce82620000d5565b9050919050565b600073ffffffffffffffffffffffffffffffffffffffff82169050919050565b6200010081620000c1565b81146200010c57600080fd5b50565b611765806200011f6000396000f3fe6080604052600436106100ab5760003560e01c8063d7a0c12111610064578063d7a0c121146101bc578063dd48622e146101fa578063ea0a523714610223578063ecc6ab761461024c578063efaa64fa14610289578063fce59c2f146102b2576100b2565b806327c15c51146100b45780632f64cdf0146100dd5780635047fa591461011a578063722713f71461014a57806376d33951146101755780638b7afe2e14610191576100b2565b366100b257005b005b3480156100c057600080fd5b506100db60048036038101906100d69190610f65565b6102f6565b005b3480156100e957600080fd5b5061010460048036038101906100ff9190610f3c565b610420565b604051610111919061145c565b60405180910390f35b34801561012657600080fd5b5061012f610438565b60405161014196959493929190611374565b60405180910390f35b34801561015657600080fd5b5061015f61044a565b60405161016c919061145c565b60405180910390f35b61018f600480360381019061018a9190610fa6565b61046e565b005b34801561019d57600080fd5b506101a66107ba565b6040516101b3919061145c565b60405180910390f35b3480156101c857600080fd5b506101e360048036038101906101de9190610ffa565b6107d9565b6040516101f19291906112a4565b60405180910390f35b34801561020657600080fd5b50610221600480360381019061021c9190610fa6565b610840565b005b34801561022f57600080fd5b5061024a60048036038101906102459190610f65565b6109e8565b005b34801561025857600080fd5b50610273600480360381019061026e9190610f65565b610b7d565b604051610280919061145c565b60405180910390f35b34801561029557600080fd5b506102b060048036038101906102ab9190610f65565b610c05565b005b3480156102be57600080fd5b506102d960048036038101906102d49190610f65565b610cdf565b6040516102ed9897969594939291906112cd565b60405180910390f35b60008054906101000a900473ffffffffffffffffffffffffffffffffffffffff1673ffffffffffffffffffffffffffffffffffffffff163373ffffffffffffffffffffffffffffffffffffffff1614610384576040517f08c379a000000000000000000000000000000000000000000000000000000000815260040161037b906113dc565b60405180910390fd5b6000600282604051610396919061124f565b9081526020016040518091039020905060018160000160006101000a81548160ff021916908315150217905550818160010190805190602001906103db929190610df2565b504281600601819055507f2ceca6f43d0dfb8cb2d6b534a530b582d62ea38225f72769473f0dbf31cb0a8a826040516104149190611352565b60405180910390a15050565b60036020528060005260406000206000915090505481565b60606000806000806000909192939495565b6000803373ffffffffffffffffffffffffffffffffffffffff163190508091505090565b60003414156104b2576040517f08c379a00000000000000000000000000000000000000000000000000000000081526004016104a99061141c565b60405180910390fd5b60006002836040516104c4919061124f565b90815260200160405180910390209050600115158160000160009054906101000a900460ff16151514156107b55780600201600081548092919061050790611603565b919050558160020181905550600081600201549050600034905060405180604001604052808573ffffffffffffffffffffffffffffffffffffffff1681526020018281525060018660405161055c919061124f565b9081526020016040518091039020600084815260200190815260200160002060008201518160000160006101000a81548173ffffffffffffffffffffffffffffffffffffffff021916908373ffffffffffffffffffffffffffffffffffffffff1602179055506020820151816001015590505081600360008673ffffffffffffffffffffffffffffffffffffffff1673ffffffffffffffffffffffffffffffffffffffff168152602001908152602001600020819055506000836003015414156106b8573073ffffffffffffffffffffffffffffffffffffffff166108fc829081150290604051600060405180830381858888f19350505050158015610666573d6000803e3d6000fd5b50808360030181905550838360040160006101000a81548173ffffffffffffffffffffffffffffffffffffffff021916908373ffffffffffffffffffffffffffffffffffffffff1602179055506107b2565b8260030154811115610710573073ffffffffffffffffffffffffffffffffffffffff166108fc829081150290604051600060405180830381858888f1935050505015801561070a573d6000803e3d6000fd5b506107b1565b82600301548110156107b0573073ffffffffffffffffffffffffffffffffffffffff166108fc829081150290604051600060405180830381858888f19350505050158015610762573d6000803e3d6000fd5b50838360040160006101000a81548173ffffffffffffffffffffffffffffffffffffffff021916908373ffffffffffffffffffffffffffffffffffffffff1602179055508083600301819055505b5b5b50505b505050565b60003073ffffffffffffffffffffffffffffffffffffffff1631905090565b600182805160208101820180518482526020830160208501208183528095505050505050602052806000526040600020600091509150508060000160009054906101000a900473ffffffffffffffffffffffffffffffffffffffff16908060010154905082565b6000600283604051610852919061124f565b908152602001604051809103902090506000600184604051610874919061124f565b90815260200160405180910390206000600360008673ffffffffffffffffffffffffffffffffffffffff1673ffffffffffffffffffffffffffffffffffffffff16815260200190815260200160002054815260200190815260200160002090506000816001015411801561093757508273ffffffffffffffffffffffffffffffffffffffff168160000160009054906101000a900473ffffffffffffffffffffffffffffffffffffffff1673ffffffffffffffffffffffffffffffffffffffff16145b80156109585750600015158260000160009054906101000a900460ff161515145b610997576040517f08c379a000000000000000000000000000000000000000000000000000000000815260040161098e9061143c565b60405180910390fd5b8273ffffffffffffffffffffffffffffffffffffffff166108fc82600101549081150290604051600060405180830381858888f193505050501580156109e1573d6000803e3d6000fd5b5050505050565b60006002826040516109fa919061124f565b9081526020016040518091039020905060008054906101000a900473ffffffffffffffffffffffffffffffffffffffff1673ffffffffffffffffffffffffffffffffffffffff166108fc82600301549081150290604051600060405180830381858888f19350505050158015610a74573d6000803e3d6000fd5b506000600183604051610a87919061124f565b90815260200160405180910390206000600360008560040160009054906101000a900473ffffffffffffffffffffffffffffffffffffffff1673ffffffffffffffffffffffffffffffffffffffff1673ffffffffffffffffffffffffffffffffffffffff1681526020019081526020016000205481526020019081526020016000209050600081600101819055507f16032b204f57bdd1121676ae824de347cf82e44aef682df4005ac12c2d56c89b8260040160009054906101000a900473ffffffffffffffffffffffffffffffffffffffff16848460030154604051610b7093929190611266565b60405180910390a1505050565b600080600283604051610b90919061124f565b90815260200160405180910390209050600115158160000160009054906101000a900460ff16151514610bf8576040517f08c379a0000000000000000000000000000000000000000000000000000000008152600401610bef906113fc565b60405180910390fd5b8060020154915050919050565b60008054906101000a900473ffffffffffffffffffffffffffffffffffffffff1673ffffffffffffffffffffffffffffffffffffffff163373ffffffffffffffffffffffffffffffffffffffff1614610c93576040517f08c379a0000000000000000000000000000000000000000000000000000000008152600401610c8a906113dc565b60405180910390fd5b6000600282604051610ca5919061124f565b9081526020016040518091039020905060008160000160006101000a81548160ff021916908315150217905550610cdb826109e8565b5050565b6002818051602081018201805184825260208301602085012081835280955050505050506000915090508060000160009054906101000a900460ff1690806001018054610d2b906115d1565b80601f0160208091040260200160405190810160405280929190818152602001828054610d57906115d1565b8015610da45780601f10610d7957610100808354040283529160200191610da4565b820191906000526020600020905b815481529060010190602001808311610d8757829003601f168201915b5050505050908060020154908060030154908060040160009054906101000a900473ffffffffffffffffffffffffffffffffffffffff16908060050154908060060154908060070154905088565b828054610dfe906115d1565b90600052602060002090601f016020900481019282610e205760008555610e67565b82601f10610e3957805160ff1916838001178555610e67565b82800160010185558215610e67579182015b82811115610e66578251825591602001919060010190610e4b565b5b509050610e749190610e78565b5090565b5b80821115610e91576000816000905550600101610e79565b5090565b6000610ea8610ea3846114a8565b611477565b905082815260208101848484011115610ec057600080fd5b610ecb84828561158f565b509392505050565b600081359050610ee2816116ea565b92915050565b600081359050610ef781611701565b92915050565b600082601f830112610f0e57600080fd5b8135610f1e848260208601610e95565b91505092915050565b600081359050610f3681611718565b92915050565b600060208284031215610f4e57600080fd5b6000610f5c84828501610ed3565b91505092915050565b600060208284031215610f7757600080fd5b600082013567ffffffffffffffff811115610f9157600080fd5b610f9d84828501610efd565b91505092915050565b60008060408385031215610fb957600080fd5b600083013567ffffffffffffffff811115610fd357600080fd5b610fdf85828601610efd565b9250506020610ff085828601610ee8565b9150509250929050565b6000806040838503121561100d57600080fd5b600083013567ffffffffffffffff81111561102757600080fd5b61103385828601610efd565b925050602061104485828601610f27565b9150509250929050565b61105781611559565b82525050565b61106681611511565b82525050565b611075816114ff565b82525050565b61108481611523565b82525050565b6000611095826114d8565b61109f81856114e3565b93506110af81856020860161159e565b6110b8816116d9565b840191505092915050565b60006110ce826114d8565b6110d881856114f4565b93506110e881856020860161159e565b80840191505092915050565b60006111016021836114e3565b91507f6f6e6c79206f776e65722063616e2072756e20746869732066756e6374696f6e60008301527f20000000000000000000000000000000000000000000000000000000000000006020830152604082019050919050565b6000611167601c836114e3565b91507f536f727279212042696464696e6720697320636c6f736564206e6f77000000006000830152602082019050919050565b60006111a76018836114e3565b91507f76616c75652073686f756c64206e6f74206265207a65726f00000000000000006000830152602082019050919050565b60006111e76039836114e3565b91507f6269642077696e6e65722063616e742077697468647261772c2062696464657260008301527f20646f65736e742065786973742c62696420636c6f73656420000000000000006020830152604082019050919050565b6112498161154f565b82525050565b600061125b82846110c3565b915081905092915050565b600060608201905061127b600083018661104e565b818103602083015261128d818561108a565b905061129c6040830184611240565b949350505050565b60006040820190506112b9600083018561105d565b6112c66020830184611240565b9392505050565b6000610100820190506112e3600083018b61107b565b81810360208301526112f5818a61108a565b90506113046040830189611240565b6113116060830188611240565b61131e608083018761105d565b61132b60a0830186611240565b61133860c0830185611240565b61134560e0830184611240565b9998505050505050505050565b6000602082019050818103600083015261136c818461108a565b905092915050565b600060c082019050818103600083015261138e818961108a565b905061139d602083018861107b565b6113aa6040830187611240565b6113b76060830186611240565b6113c4608083018561106c565b6113d160a0830184611240565b979650505050505050565b600060208201905081810360008301526113f5816110f4565b9050919050565b600060208201905081810360008301526114158161115a565b9050919050565b600060208201905081810360008301526114358161119a565b9050919050565b60006020820190508181036000830152611455816111da565b9050919050565b60006020820190506114716000830184611240565b92915050565b6000604051905081810181811067ffffffffffffffff8211171561149e5761149d6116aa565b5b8060405250919050565b600067ffffffffffffffff8211156114c3576114c26116aa565b5b601f19601f8301169050602081019050919050565b600081519050919050565b600082825260208201905092915050565b600081905092915050565b600061150a8261152f565b9050919050565b600061151c8261152f565b9050919050565b60008115159050919050565b600073ffffffffffffffffffffffffffffffffffffffff82169050919050565b6000819050919050565b60006115648261156b565b9050919050565b60006115768261157d565b9050919050565b60006115888261152f565b9050919050565b82818337600083830152505050565b60005b838110156115bc5780820151818401526020810190506115a1565b838111156115cb576000848401525b50505050565b600060028204905060018216806115e957607f821691505b602082108114156115fd576115fc61167b565b5b50919050565b600061160e8261154f565b91507fffffffffffffffffffffffffffffffffffffffffffffffffffffffffffffffff8214156116415761164061164c565b5b600182019050919050565b7f4e487b7100000000000000000000000000000000000000000000000000000000600052601160045260246000fd5b7f4e487b7100000000000000000000000000000000000000000000000000000000600052602260045260246000fd5b7f4e487b7100000000000000000000000000000000000000000000000000000000600052604160045260246000fd5b6000601f19601f8301169050919050565b6116f3816114ff565b81146116fe57600080fd5b50565b61170a81611511565b811461171557600080fd5b50565b6117218161154f565b811461172c57600080fd5b5056fea26469706673582212207b1dedc9644cc6ff739e55638770734accaaf07c381f1116cfb6aa60e730615364736f6c63430008000033",
  "immutableReferences": {},
  "source": "// SPDX-License-Identifier: MIT\npragma solidity ^0.8.0;\n\ncontract KURASAH{\n    \n    //constructor \n    \n    constructor(address payable _owner) {\n        owner = _owner;\n        \n    }\n    \n    // state variables\n    address payable owner;\n    \n    \n    receive() external payable{\n        \n    }\n    fallback() external payable{\n    }\n    \n    // struct \n    struct Tender{\n        bool open;\n        string name;\n        uint256 bids;\n        uint256 LowestBid;\n        address payable winner;\n        uint256 winId;\n        uint256 start;\n        uint256 end;\n    }\n    \n    struct Bidders{\n        address payable bidder;\n        uint256 biddingAmount;\n        \n    }\n    // modifier\n    \n    modifier onlyOwner(){\n        require(msg.sender == owner,'only owner can run this function ');\n        _;\n    }\n    \n    \n    // mappings\n    \n    mapping(string => mapping(uint256 => Bidders)) public bidding;\n    mapping(string => Tender) public tenderInfo;\n    mapping(address => uint) public bidderId;\n    \n    \n    // events \n    event BidWinner(address winner, string bidName , uint amout );\n    event TenderCreated(string name);\n    \n    \n    \n    // tender creation\n    function createTender(string memory _name) public onlyOwner {\n        Tender storage tn = tenderInfo[_name];\n        tn.open = true;\n        tn.name = _name;\n        tn.start = block.timestamp;\n        emit TenderCreated(_name);\n    }\n    \n    // check contract Balance\n    function contractBalance() public view returns(uint) {\n         return ((address(this)).balance);\n    }\n    \n    // balance of ether of current user\n    function balanceOf()public view returns(uint){\n        uint myBalance = msg.sender.balance;\n        return myBalance;\n    }\n    \n    // check no. of bids in Tender\n    function numberOfBids(string memory _tender) public view returns(uint){\n        Tender storage tn = tenderInfo[_tender];\n        require(tn.open == true, 'Sorry! Bidding is closed now');\n        return (tn.bids) ;\n    }\n    \n    \n    \n    // bidding\n   \n    function bid(string memory _name, address payable user)public payable{\n        require(msg.value != 0, 'value should not be zero');\n        Tender storage tn = tenderInfo[_name];\n        if(tn.open == true){\n            tn.bids = tn.bids++;\n            uint newId = tn.bids; \n            uint256 amount = msg.value;\n            bidding[_name][newId]= Bidders(user, amount);\n            bidderId[user] = newId;  \n            if(tn.LowestBid == 0){\n                (payable(address(this))).transfer(amount);\n                tn.LowestBid = amount;\n                tn.winner = user;\n            }else if(amount > tn.LowestBid ){\n                (payable(address(this))).transfer(amount);\n            }else if(amount < tn.LowestBid){\n                (payable(address(this))).transfer(amount);\n                tn.winner = user;\n                tn.LowestBid = amount;\n            }\n        }\n    }\n    \n    \n    \n    // close bidding \n    function closeBid(string memory _name)public onlyOwner{\n        Tender storage tn = tenderInfo[_name];\n        tn.open = false;\n        announce( _name);\n    }\n    \n    \n    // bid announcment\n    function announce(string memory _name) public{\n        Tender storage tn = tenderInfo[_name];\n        // tn.open == true;\n        owner.transfer(tn.LowestBid);\n        Bidders storage sn = bidding[_name][bidderId[tn.winner]];\n        sn.biddingAmount = 0;\n        emit BidWinner(tn.winner, _name, tn.LowestBid);\n    }\n\n       function Bidinfo() public pure returns (\n        string memory name,bool open , uint256 bids, uint256 LowestBid, address winner , uint256 winId\n        ) {\n      \n            open;\n            name;\n            bids;\n            LowestBid;\n            winner;\n            winId;\n       \n    }\n\n    //  function info(uint _Info) public view returns(string memory name,bool open , uint256 bids, uint256 LowestBid, address winner , uint256 winId){\n      // name = tenderInfo[_Info].name;\n     //  bids = tenderInfo[_Info].bids;\n     //  LowestBid = tenderInfo[_Info].LowestBid;\n    //   winner = tenderInfo[_Info].winner;\n    //   winId = tenderInfo[_Info].winId;\n\n    \n  // }\n    \n    \n    // Losers withdrawal\n    function withdraw(string memory _name,address payable user) public{\n        Tender storage tn = tenderInfo[_name];\n        Bidders storage sn = bidding[_name][bidderId[user]];\n        require(sn.biddingAmount > 0 && sn.bidder == user && tn.open == false ,'bid winner cant withdraw, bidder doesnt exist,bid closed ');\n        (user).transfer(sn.biddingAmount);\n        \n    }\n}\n",
  "sourcePath": "C:\\Users\\TAWFIQ\\Desktop\\ProjectTruffle\\contracts\\KURASAH.sol",
  "compiler": {
    "name": "solc",
    "version": "0.8.0+commit.c7dfd78e.Emscripten.clang"
  },
  "schemaVersion": "3.4.3",
  "updatedAt": "2021-09-01T11:11:26.450Z",
  "networkType": "ethereum",
  "devdoc": {
    "kind": "dev",
    "methods": {},
    "version": 1
  },
  "userdoc": {
    "kind": "user",
    "methods": {},
    "version": 1
  }
}